:020000040800F2
:10000000E016002081060008850400088704000827
:100010008B0400088F04000893040008000000000F
:10002000000000000000000000000000970400082D
:1000300099040008000000009B0400089D040008CB
:100040009B0600089B0600089B0600089B0600080C
:100050009B0600089B0600089B0600089B060008FC
:100060009B0600089B0600089B0600089B060008EC
:100070009B0600089B0600089B0600089B060008DC
:100080009B0600089B0600089B0600089B060008CC
:10009000AB6A00089B0600089B0600089B06000848
:1000A0009B0600089B0600089B0600089B060008AC
:1000B0009B0600089B0600089B0600089B0600089C
:1000C0009B0600089B0600089B0600089B0600088C
:1000D0009B0600082D760008233000089B060008C8
:1000E000817900089B0600089B0600089B06000813
:1000F0009B0600089B0600089B0600089B0600085C
:100100009B0600089B0600089B0600089B0600084B
:100110009B0600089B0600089B0600089B0600083B
:100120009B0600089B0600089B0600089B0600082B
:1001300000F002F800F03AF80AA090E8000C8244BF
:100140008344AAF10107DA4501D100F02FF8AFF29C
:10015000090EBAE80F0013F0010F18BFFB1A43F0A5
:1001600001031847BC430500DC430500103A24BFD7
:1001700078C878C1FAD8520724BF30C830C144BF0C
:1001800004680C607047000000230024002500264E
:10019000103A28BF78C1FBD8520728BF30C148BFEA
:1001A0000B6070471FB51FBD10B510BD07F022FED4
:1001B0001146FFF7F7FF00F009F807F040FE03B41F
:1001C000FFF7F2FF03BC03F023F80000002403F064
:1001D00094FD04F032FB04F062FF03F095FF07F09A
:1001E00089F804F0EDFF4AE104F083FF00B901242F
:1001F000012CF8D1A248808814280DDDA048808801
:100200004B2809DA9E48C088232805DD9C48C08811
:100210005A2801DA02F0C4FD994880885F280DDD74
:1002200097488088962809DA9548C088232805DDF4
:100230009348C0885A2801DA06F0F5FF9048808874
:10024000AA280DDD8E488088E62809DA8C48C08807
:10025000232805DD8A48C0885A2801DA07F0B9FA50
:1002600087488088F5280EDD85488088B0F5987F1E
:1002700009DC8348C088232805DD8148C0885A28C6
:1002800001DA03F0E4FB7E48808814280DDD7C4809
:1002900080884B2809DA7A48C0887D2805DD7848AF
:1002A000C088AF2801DA07F049F8754880885F28D0
:1002B0000DDD73488088962809DA7148C0887D284A
:1002C00005DD6F48C088AF2801DA05F072FE6C4882
:1002D0008088AA280DDD6A488088E62809DA6848FF
:1002E000C0887D2805DD6648C088AF2801DA03F0A4
:1002F000F2F963488088F5280EDD61488088B0F502
:10030000987F09DC5E48C0887D2805DD5C48C08890
:10031000AF2801DA07F073FB594880885F280EDDAB
:100320005748808896280ADA5548C088D72806DDBD
:100330005348C088B0F5847F01DC07F068FC504862
:100340008088AA280EDD4E488088E6280ADA4C48C4
:10035000C088D72806DD4A48C088B0F5847F01DC14
:1003600004F006FC46488088F5280FDD4448808864
:10037000B0F5987F0ADC4248C088D72806DD40489F
:10038000C088B0F5847F01DC05F0DBFB3C48808849
:1003900014280FDD3A4880884B280BDA3848C0888B
:1003A000B0F5967F06DD3648C088B0F5B17F01DC38
:1003B00006F0DEF8324880885F280FDD30488088FC
:1003C00096280BDA2E48C088B0F5967F06DD2C48BB
:1003D000C088B0F5B17F01DC04F08FFF2848808829
:1003E000AA280FDD26488088E6280BDA2448C08832
:1003F000B0F5967F06DD2248C088B0F5B17F01DCFC
:1004000003F0DBFF1E488088F52810DD1C4880883B
:10041000B0F5987F0BDC1A48C088B0F5967F06DDF2
:100420001748C088B0F5B17F01DC07F01CF914480B
:10043000808814280FDD124880884B280BDA10487A
:10044000C088B0F5CD7F06DD0D48C088B0F5E67FE9
:1004500001DA02F011FE0A4880885F280FDD0848A3
:10046000808896280BDA0648C088B0F5CD7F06DD77
:100470000348C088B0F5E67F01DA06F0EAFBB3E690
:100480002A000020704700BFFEE700BFFEE700BF64
:10049000FEE700BFFEE770477047704770470000F7
:1004A0000CB50020019000906C48006840F480304A
:1004B0006A49086000BF6948006800F40030009095
:1004C0000198401C0190009818B90198B0F5A06FF0
:1004D000F1D16248006800F4003010B101200090B2
:1004E00001E0002000900098012843D15C4800689A
:1004F00040F010005A4908600846006820F00300E8
:1005000008600846006840F00200086053484068F0
:10051000524948600846406848600846406840F4D0
:10052000806048600846406820F47C1048600846B7
:10053000406840F4E81048600846006840F0807069
:10054000086000BF4548006800F000700028F9D03E
:100550004248406820F0030040494860084640682F
:1005600040F00200486000BF3C48406800F00C00CA
:100570000828F9D10CBD10B5FFF792FF10BD10B5DA
:100580003648006840F00100344908600846406879
:1005900034490840314948600846006832490840FB
:1005A0002E4908600846006820F48020086008464C
:1005B000406820F4FE0048604FF41F008860FFF799
:1005C000DAFF4FF000602949086010BD10B5002126
:1005D00000200022214B5B6803F00C0121B10429AB
:1005E00006D0082928D107E0214B224C236027E0C0
:1005F0001F4B204C236023E0184B5B6803F4701002
:10060000164B5B6803F48032022303EB904022B95F
:10061000194B4343174C23600DE0104B5B6803F408
:10062000003323B1144B4343124C236003E0104BBF
:100630004343104C236003E00D4B0E4C236000BF7E
:1006400000BF064B5B68C3F303130C4CE15C094B22
:100650001B68CB40074C236010BD00000010024017
:10066000002002400000FFF8FFFFF6FE08ED00E06A
:1006700000127A000000002000093D000400002064
:100680000948804709480047FEE7FEE7FEE7FEE726
:10069000FEE7FEE7FEE7FEE7FEE7FEE70448054962
:1006A000054A064B704700007F050008310100082D
:1006B000E0100020E0160020E0120020E0120020F0
:1006C00010B50446CC48844208D10121042000F032
:1006D0002DFB0021042000F029FB46E0C74884429E
:1006E00008D10121082000F021FB0021082000F0A2
:1006F0001DFB3AE0C248844208D10121102000F0DD
:1007000015FB0021102000F011FB2EE0BD488442B3
:1007100008D10121202000F009FB0021202000F059
:1007200005FB22E0B848844208D10121402000F0B6
:10073000FDFA0021402000F0F9FA16E0B3488442A7
:1007400008D10121802000F0F1FA0021802000F082
:10075000EDFA0AE0AE48844207D10121801500F08D
:10076000E5FA0021A01500F0E1FA10BD10B5012155
:10077000084600F0DBFA0021012000F0D7FA10BD96
:100780002DE9F04102460025002600200023002428
:10079000002791F803C00CF00F0591F803C00CF08E
:1007A000100CBCF1000F03D091F802C04CEA050513
:1007B00091F800C0BCF1000F31D0146800202BE08C
:1007C0004FF0010C0CFA00F3B1F800C00CEA03067C
:1007D0009E4220D183004FF00F0C0CFA03F7BC436C
:1007E00005FA03FC4CEA040491F803C0BCF1280F9D
:1007F00006D14FF0010C0CFA00FCC2F814C00AE05C
:1008000091F803C0BCF1480F05D14FF0010C0CFA70
:1008100000FCC2F810C0401C0828D1D31460B1F805
:1008200000C0BCF1FF0F34DD546800202EE000F161
:10083000080C4FF0010808FA0CF3B1F800C00CEAFC
:1008400003069E4221D183004FF00F0C0CFA03F7F0
:10085000BC4305FA03FC4CEA040491F803C0BCF164
:10086000280F05D100F1080C08FA0CF8C2F8148022
:1008700091F803C0BCF1480F07D100F1080C4FF00C
:10088000010808FA0CF8C2F81080401C0828CED3E2
:100890005460BDE8F0814FF6FF7101800221817044
:1008A0000421C17070470246002093680B400BB1D1
:1008B000012000E0002070470146886880B2704740
:1008C00002460020D3680B400BB1012000E000205D
:1008D00070470146C86880B2704701617047416146
:1008E00070470AB1016100E041617047C160704723
:1008F0004FF480320A438261816182618269826938
:10090000704702460020434B18684FF6807318402A
:1009100040EA021008433F4B186070473E49C861E7
:100920007047F0B50A46002300240021002500F09E
:100930000046B6F1004F02D1364EF16901E0354E66
:100940007168C0F3034583B200F44016B6F5401F4A
:1009500008D121F070612F4E766826F070662D4F19
:100960007E6012E000F48016B6F5801F06D10326E3
:1009700006FA05F4A14341F0706106E0460D360128
:1009800003FA06F6B14341F0706122B1460D36011B
:1009900003FA06F6314300F00046B6F1004F02D1EB
:1009A0001C4EF16101E01B4E7160F0BD30B50022BC
:1009B0008B071C0F0F2303FA04F2164B08338C101D
:1009C00053F824309343134C08348D1044F82530E9
:1009D00023468C1053F824308C07240F00FA04F4BB
:1009E00023430C4C08348D1044F8253030BD0A499F
:1009F000DC3108607047000000080140000C014035
:100A0000001001400014014000180140001C01408A
:100A1000002001400000014000002042DF48006843
:100A200040F00100DD49086008464068DC490840A4
:100A3000DA49486008460068DA490840D749086042
:100A40000846006820F4802008600846406820F4CA
:100A5000FE0048604FF41F0088607047CF49096866
:100A600021F48031CD4A11601146096821F48021BA
:100A70001160B0F5803F03D0B0F5802F0ED106E0B5
:100A8000C649096841F48031C44A116007E0C3498E
:100A9000096841F4A021C14A116000E000BF00BF15
:100AA000704710B501460022002300204A11012A98
:100AB00002D1BA4C236806E0022A02D1B74C236A5D
:100AC00001E0B64C636A01F01F02012494401C400F
:100AD0000CB1012000E0002010BD38B500200090CE
:100AE0000024002500BF3120FFF7DBFF05460098FA
:100AF000401C00900098B0F5A06F01D0002DF2D0FE
:100B00003120FFF7CEFF08B1012400E00024204689
:100B100038BD01460020A14A106820F0F80040EAE4
:100B2000C10010607047A04908607047024600206D
:100B30009A4B586820F47C1042EA01031843974B03
:100B40005860704798490866704701460020934AEC
:100B5000506820F003000843506070478F48406899
:100B600000F00C007047014600208C4A506820F0CD
:100B7000F00008435060704701460020874A5068E3
:100B800020F4E06008435060704701460020834A2B
:100B9000506820F4605040EAC1005060704729B1AD
:100BA0007E4A527A02437D4B5A7204E07B4A527A63
:100BB00082437A4B5A7270477B49D831086070473C
:100BC00001460020754A506820F4404008435060B8
:100BD00070470021714A20321170704A82F820104B
:100BE000012802D004280AD104E001216B4A2032F6
:100BF000117005E00521694A2032117000E000BF44
:100C000000BF70476949086070476449096A014339
:100C1000624A11627047654944390860704730B5CF
:100C200000210022002400235C4D6D6805F00C01BA
:100C300021B1042905D0082923D105E05C4D0560C8
:100C400022E05B4D05601FE0544D6D6805F47012A5
:100C5000524D6D6805F48034022505EB92421CB9B3
:100C6000544D554305600BE04C4D6D6805F400355F
:100C70001DB1504D5543056002E04D4D5543056093
:100C800002E04B4D056000BF00BF444D6D6805F0AC
:100C9000F0010909484D6B5C0568DD4045603F4D3A
:100CA0006D6805F4E061090A434D6B5C4568DD4001
:100CB00085603A4D6D6805F46051C90A3E4D6B5C24
:100CC0004568DD40C560354D6D6805F44041890BD0
:100CD0003A4D6B5CC568B5FBF3F5056130BD29B1D4
:100CE0002E4A526902432D4B5A6104E02B4A526945
:100CF00082432A4B5A61704729B1284A92690243BC
:100D0000264B9A6104E0254A92698243234B9A61FB
:100D1000704729B1214AD2690243204BDA6104E0CD
:100D20001E4AD26982431D4BDA61704729B11B4AC2
:100D3000D2680243194BDA6004E0184AD268824351
:100D4000164BDA60704729B1144A12690243134BFB
:100D50001A6104E0114A12698243104B1A6170470C
:100D600012494039086070470F49C86470470B4901
:100D7000C87170470948406A40F08070074948626E
:100D8000704701460020054A92680A400AB10120D6
:100D900000E000207047014988727047001002404F
:100DA0000000FFF8FFFFF6FE0000424280044242CE
:100DB00000127A0000093D001400002024000020E9
:100DC00010B50446FB48844209D101218803FFF78E
:100DD000ADFF00214FF48040FFF7A8FF32E0F64856
:100DE000844209D101214804FFF7ADFF00214FF4EF
:100DF0000030FFF7A8FF25E0F048844209D1012127
:100E00008804FFF7A0FF00214FF48020FFF79BFF2D
:100E100018E0EB48844209D10121C804FFF793FF91
:100E200000214FF40020FFF78EFF0BE0E5488442DD
:100E300008D101210805FFF786FF00214FF480103B
:100E4000FFF781FF10BD2DE9F04786B005460E463D
:100E50000024A24600BFA1460027B08900B100BF10
:100E60002F462C8A4CF6FF700440F08804432C82F5
:100E7000AC894EF6F3100440B0883189084371897B
:100E800008430443AC81AC8A4FF6FF400440B0896C
:100E90000443AC8201A8FFF7C2FEC648874202D1D4
:100EA000DDF810A001E0DDF80CA0A88900F40040F6
:100EB00040B10AEBCA0000EB0A1031684900B0FBF0
:100EC000F1F807E00AEBCA0000EB0A10316889006C
:100ED000B0FBF1F86420B8FBF0F0040120096421B4
:100EE00001FB1089A88900F4004040B1322000EBDA
:100EF000C900B0FBF1F000F00700044308E0322025
:100F000000EB09106421B0FBF1F000F00F00044386
:100F10002C8106B0BDE8F0874FF416510160002126
:100F20008180C18001810C21418100218181704734
:100F300010B502460020108A4FF2FF0318400B88BC
:100F40004C8823438C882343CC8823431843108246
:100F500010BD0021018041808180C180704721B196
:100F6000828942F40052828104E082894DF6FF7347
:100F70001A4082817047F0B5034600240026002500
:100F8000002040F66A17B94200D100BF1846C1F3ED
:100F9000421401F01F06012707FA06F5012C01D1C2
:100FA0000C3004E0022C01D1103000E014301AB1F2
:100FB00007682F43076002E00768AF430760F0BD92
:100FC0001AB1838A0B43838202E0838A8B43838234
:100FD0007047028A4FF6F0731A400282028A0A436F
:100FE0000282704782894FF2FF731A4082818289A0
:100FF0000A438281704721B1828942F002028281D4
:1010000004E082894FF6FD731A4082817047028A9C
:101010004FF6DF731A400282028A0A430282704747
:1010200021B1028A42F48042028204E0028A4BF635
:10103000FF731A4002827047C1F308028280704732
:1010400001468888C0F308007047818941F001019A
:1010500081817047028BD2B20283028B42EA012265
:1010600002837047028B02F47F420283028B0A43A1
:101070000283704721B1828A42F02002828204E01A
:10108000828A4FF6DF731A408282704721B1828ACA
:1010900042F01002828204E0828A4FF6EF731A4017
:1010A0008282704721B1828A42F00802828204E083
:1010B000828A4FF6F7731A408282704721B1828983
:1010C00042F40042828103E08289C2F30E028281EF
:1010D000704721B1828A42F40062828204E0828AEF
:1010E0004FF2FF731A4082827047828A4FF6FB7379
:1010F0001A408282828A0A438282704721B1828AA0
:1011000042F00202828204E0828A4FF6FD731A40A6
:101110008282704702460020B1F5007F00D100BFF7
:1011200013880B400BB1012000E00020704701F450
:101130000072B2F5007F00D100BFCA430280704741
:1011400070B50246002400230025002040F66A16F0
:10115000B14200D100BFC1F3421501F01F030126C7
:1011600006FA03F3012D02D19689334006E0022DE1
:1011700002D1168A334001E0968A33400C120126D0
:1011800006FA04F41688344013B10CB1012000E0D3
:10119000002070BD10B50022002340F66A14A14261
:1011A00000D100BF0A1201249440A3B2DC430480A2
:1011B00010BD0000003801400044004000480040DD
:1011C000004C00400050004031490143314A116059
:1011D000704770B5002100230F22C47804B32D4C52
:1011E000246804F4E064C4F5E064210AC1F1040356
:1011F000CA40447804FA03F1847814402143090179
:10120000254C0678A155047804F01F050124AC4054
:1012100005786D11AD0005F1E025C5F8004109E044
:10122000047804F01F050124AC401C4D06787611AB
:1012300045F8264070BD1A4A0A400243154B1B1F51
:101240001A60704739B1134A121D12680243114BDC
:101250001B1D1A6006E00F4A121D126882430D4BD7
:101260001B1D1A607047042808D14FF0E02109695E
:1012700041F004014FF0E022116107E04FF0E0215E
:10128000096921F004014FF0E0221161704700006C
:101290000000FA050CED00E000E400E080E100E071
:1012A00080FFFF1F10B50446FA48844208D101218F
:1012B0004015FFF73BFD00216015FFF737FD17E0F4
:1012C000F548844208D101210015FFF72FFD0021C8
:1012D0002015FFF72BFD0BE0F048844208D10121D7
:1012E000C803FFF723FD00214FF40040FFF71EFD68
:1012F00010BD30B50246002000235068E84C204065
:101300000D790C6844EA0524204350609068E54C50
:101310002040D1E902542C434D7944EA450420434E
:101320009060D06A20F470000C7C641EE4B2234309
:1013300040EA0350D06230BD00210160017141716B
:101340008160C16001210174704721B1826842F05F
:101350000102826003E0826822F00102826070472D
:1013600021B1826842F48072826003E0826822F4D4
:1013700080728260704710B50023CBB21AB1446806
:101380001C43446002E044689C43446010BD816893
:1013900041F0080181607047014600208A6802F030
:1013A00008020AB1012000E000207047816841F086
:1013B000040181607047014600208A6802F004023F
:1013C0000AB1012000E00020704721B1826842F498
:1013D000A002826003E0826822F4A002826070476B
:1013E000014600208A6802F480020AB1012000E070
:1013F0000020704710B50A4600210023416821F4FF
:101400006041531E41EA4331416010BD21B1426841
:1014100042F40062426003E0426822F400624260EB
:101420007047F0B504460D4600200021092D11DD5E
:10143000E068A5F10A0606EB4607072606FA07F15B
:101440008843A5F10A0606EB460603FA06F10843AF
:10145000E0600CE0206905EB4507072606FA07F176
:10146000884305EB450603FA06F108432061072A85
:101470000FDA606B561E06EB86071F2606FA07F189
:101480008843561E06EB860605FA06F1084360639C
:1014900022E00D2A0FDA206BD61F06EB86071F26E7
:1014A00006FA07F18843D61F06EB860605FA06F111
:1014B0000843206310E0E06AA2F10D0606EB860700
:1014C0001F2606FA07F18843A2F10D0606EB8606F1
:1014D00005FA06F10843E062F0BD21B1826842F4EA
:1014E0008012826003E0826822F48012826070477A
:1014F0000146C86C80B2704766484C30006870473F
:1015000021B1426842F48062426003E0426822F402
:1015100080624260704721B1426842F4805242606A
:1015200003E0426822F48052426070470A4600217C
:10153000816821F4E04111438160704721B18268E4
:1015400042F40042826003E0826822F4004282603A
:10155000704721B1826842F40212826003E082681F
:1015600022F4021282607047014600208A6802F469
:1015700000120AB1012000E000207047F0B50446D7
:101580001546002000220026092911DDE068A1F19E
:101590000A0707EB470C072707FA0CF29043A1F163
:1015A0000A0707EB470703FA07F21043E0600CE075
:1015B000206901EB410C072707FA0CF2904301EB7D
:1015C000410703FA07F210432061A06BC0F30156F4
:1015D000EF1C06F1010CA7EB0C0707EB870C1F278C
:1015E00007FA0CF29043EF1C06F1010CA7EB0C0775
:1015F00007EB870701FA07F21043A063F0BD10B5AF
:101600000A4600210023816B21F44011531E41EA58
:101610000351816310BD08B5002300930090009B27
:101620000B440093009B1A6008BD08B502460020D9
:101630000090009201F12800009B1844009000984F
:10164000006880B208BD0A4600214168164B194067
:101650001143416070474162826270470A4600212F
:10166000416821F01F0111434160704740B10949B1
:101670000831096841F40001064A0832116007E0A8
:1016800004490831096821F40001024A0832116056
:10169000704700000024014000280140003C014048
:1016A000FFFEF0FFFDF7F1FFFFFD3FFF02460020C8
:1016B00013680B400BB1012000E000207047CA43C3
:1016C0000260704770B502460020002300240B1210
:1016D0005568CEB205EA060415681D4015B10CB177
:1016E000012000E0002070BD00220A12D3430360F5
:1016F0007047000010B501210807FFF724FB002107
:101700004FF08050FFF71FFB10BD2A490862704759
:1017100028490861704701460020274A106820F0D8
:10172000E0000843106070472249A031086070470C
:1017300010B502460020204B186820F0030010432B
:1017400018601E4B1B6843F004031C4C23600129E6
:1017500001D130BF00E020BF184B1B6823F0040309
:10176000164C236010BD1448006840F00400124974
:1017700008600846006840F0020008600F480068F2
:1017800040F004000D49086000BF00BF30BF704743
:1017900001460020084A52680A400AB1012000E0D0
:1017A000002070470449096841EA8001024A11603B
:1017B0007047000000000E420070004010ED00E095
:1017C00030B943F2DB028100A1F1C0410A6005E0BB
:1017D00043F2D2028100A1F1C0410A606FF0704271
:1017E000411C8900A1F1C0410A608100A1F1C04102
:1017F000C1F80421704710280AD118214FF0204267
:101800001166402151664FF0FC319166D16610E0BF
:101810001821F74A116040214FF02042C2F884108D
:101820004FF0FC31F24A083211604FF02042C2F80A
:101830008C1070471820EE492031086000200906FE
:10184000C1F8A4004FF0FC30E94928310860091DB7
:101850000860091D08607047D0E901121143C26891
:101860001143026911434269114382691143C269FC
:101870001143026A1143426A1143826A1143C26AE8
:101880001143026B114302689200A2F1C042116041
:10189000816808290BD101688900A1F1C04109685C
:1018A00041F0400201688900A1F1C0410A60416B2A
:1018B0000968426B526841EA0211426B926841EA40
:1018C0000221426B928941EA0241426B128A41EA4B
:1018D0000251426B127D41EA0261426B92691143EF
:1018E0000268521C9200A2F1C0421160C16AB1F5B7
:1018F000804F1BD1816B0968826B526841EA0211EB
:10190000826B926841EA0221826B128A41EA02519B
:10191000826B127D41EA0261826B92691143026817
:101920009200A2F1C042C2F8041107E06FF07042C9
:1019300001688900A1F1C041C1F80421704730B5A8
:10194000002100220023446844F0080485682C43E9
:10195000C5682C4305692C43456944EA45248569DB
:1019600044EA4531C4692468C5696D6844EA0524C0
:10197000C5692D8944EA0544C5692D7B44EA0562A1
:10198000046A2468056A6D6844EA0524056A2D899D
:1019900044EA0544056A2D7B44EA05630468102C7B
:1019A00005D14FF020442166A266E36608E0904C22
:1019B00021604FF02044C4F888208D4C0C34236003
:1019C00030BD016841F01001426841EA422182685D
:1019D00041EA4231864A20321160C1680968C26812
:1019E000526841EA0221C268128941EA0241C26892
:1019F000127B41EA02617E4A28321160016909685E
:101A00000269526841EA02210269128941EA0241EF
:101A10000269127B41EA0261754A2C321160416908
:101A200009684269526841EA02214269128941EA21
:101A300002414269127B41EA02614FF02042C2F842
:101A4000B0107047002101600221416000218160D7
:101A5000C160016141618161C16101624FF48051E6
:101A60004162490081620021C16201630F21426B22
:101A70001160426B5160FF21426B91600F21426BFC
:101A8000D160426B1161426B51610021426B9161E7
:101A90000F21826B1160826B5160FF21826B91601C
:101AA0000F21826BD160826B1161826B51610021C9
:101AB000826B91617047102101600021416081605B
:101AC000C160016141618161FC21C2691160C2692B
:101AD0005160C2699160C269D160026A1160026A94
:101AE0005160026A9160026AD16070470021016012
:101AF00041608160FC21C2681160C2685160C268A7
:101B00009160C268D1600269116002695160026926
:101B100091600269D1604269116042695160426915
:101B200091604269D160704751B18200A2F1C04218
:101B3000126842F001038200A2F1C042136009E082
:101B40008200A2F1C04212682A4B1A408300A3F11E
:101B5000C0431A60704799B1102808D14FF0204255
:101B6000126E42F004024FF020431A661DE0204A34
:101B7000126842F004024FF02043C3F8802014E0C2
:101B8000102809D14FF02042126E1A4BDB1E1A406A
:101B90004FF020431A6608E0154A1268154BDB1E09
:101BA0001A404FF02043C3F88020704748B11049D5
:101BB0002031096841F004014FF02042C2F8A01022
:101BC00009E00B49203109680A4AD21E11404FF042
:101BD0002042C2F8A0107047B9B110280CD14FF0C4
:101BE0002042126E42F040024FF020431A661FE07E
:101BF000800000A0FEFF0F00724A126842F040020F
:101C00004FF02043C3F8802012E0102808D14FF095
:101C10002042126E6C4B1A404FF020431A6607E0C8
:101C2000684A1268684B1A404FF02043C3F880207E
:101C3000704701460020102903D14FF02042506F19
:101C400002E0604A14321068704710B5F2B11028F3
:101C500007D14FF020435B6E0B434FF02044636687
:101C600032E0B0F5807F08D1564B1B1D1B680B433B
:101C70004FF02044C4F8843026E0524B24331B68D4
:101C80000B434FF02044C4F8A4301DE0102807D1C6
:101C90004FF020435B6E8B434FF02044636613E0AC
:101CA000B0F5807F08D1474B1B1D1B688B434FF05D
:101CB0002044C4F8843007E0424B24331B688B4334
:101CC0004FF02044C4F8A43010BD10B502460020E7
:101CD0000023102A03D14FF02044636E09E0B2F5CF
:101CE000807F03D1374C241D236802E0354C243417
:101CF000236803EA01040CB1012000E0002010BDBC
:101D0000102807D14FF02042526E8A434FF02043F3
:101D10005A6613E0B0F5807F08D12A4A121D126876
:101D20008A434FF02043C3F8842007E0254A243239
:101D300012688A434FF02043C3F8A420704770B55F
:101D400002460020002300240025102A03D14FF072
:101D50002046736E09E0B2F5807F03D1194E361D1F
:101D6000336802E0174E2436336803EA010403EABD
:101D7000D10514B10DB1012000E0002070BD102884
:101D800008D14FF02042526E22EAD1024FF0204398
:101D90005A6615E0B0F5807F09D10A4A121D126813
:101DA00022EAD1024FF02043C3F8842008E0054A1C
:101DB0002432126822EAD1024FF02043C3F8A42053
:101DC00070470000800000A0BFFF0F0010B5012188
:101DD0004807FEF7B8FF00214FF00050FEF7B3FFB1
:101DE00010BD30B5002200235A4C226840F6FE7424
:101DF0008440A243D1E900452C438D682C43CD6833
:101E000044EA050303FA00F42243524C226030BD39
:101E10000021016041608160C160704739B14D4A65
:101E20001268012383401A434A4B1A6006E0494A6C
:101E30001268012383409A43464B1A60704741B1B0
:101E4000444A12684FF4805383401A43414B1A604E
:101E500007E0404A12684FF4805383409A433D4B59
:101E60001A60704710B551B13A4A121D1268040940
:101E70000123A3401A43374B1B1D1A6009E0354A62
:101E8000121D126804090123A3409A43314B1B1D04
:101E90001A6010BD40B12F49091D096841F00301C6
:101EA0002C4A121D116007E02A49091D096821F01A
:101EB0000301284A121D1160704710B53AB1254B35
:101EC0001B6801FA00F42343224C236006E0214BF7
:101ED0001B6801FA00F4A3431E4C236010BD08B533
:101EE000002200921B4A009200F10802009B1A4453
:101EF0000092009A116008BD08B500220092154AB0
:101F0000009200F11402009B1A440092009A1160A2
:101F100008BD30B500240023082802D142EA01247C
:101F200001E042EA01440B4B00F120052B441C6008
:101F300030BD08B5014600200090064800902C20D6
:101F400000EB9100009A104400900098006880B265
:101F500008BD00000074004010B50446BE4884422D
:101F600008D101218014FEF7E1FE0021A014FEF744
:101F7000DDFE16E0B948844208D101210014FEF7C5
:101F8000E2FE00212014FEF7DEFE0AE0B44884429F
:101F900007D10121C013FEF7D6FE0021E013FEF7A2
:101FA000D2FE10BD10B50022028802F441520B8807
:101FB0004C8823438C882343CC8823430C892343B8
:101FC0004C8923438C892343CC8923431A430280C1
:101FD000838B4FF2FF74234083830B8A038210BDEF
:101FE0002DE9F04F85B005460C464FF00009022759
:101FF0004FF000084FF0010B0026B246A88B4FF2BD
:1020000040010840A88302202884B5F81C90A068ED
:10201000022801D100BF38E0A08810B94FF0010BB1
:1020200001E04FF0020B8D48854200D100E000BF77
:102030006846FEF7F4FDDDF800A0E088B0F5007F0B
:102040000AD14FEA1A2000EB80004000A168B0FBE3
:10205000F1F0401D86B20BE04FEA4B10BAFBF0F0F6
:1020600000EB80004000A168B0FBF1F0401D86B29B
:102070000A20B6FBF0F606F00108A6EB0800C0F354
:102080004F074FF6FF7000EA0828022F01DBFF2FF1
:1020900002DD02274FF00008E08840EA08003843DC
:1020A0002884A088A18908436188084321880843BF
:1020B00040F4006040EA0909A5F81C9005B0BDE8AD
:1020C000F08F0021018041808180C18001814181A8
:1020D0008181C181072101827047002101804180F7
:1020E0008180C1800221816000218181704721B1FE
:1020F000028842F04002028004E002884FF6BF737B
:102100001A400280704721B1828B42F48062828340
:1021100004E0828B4FF6FF331A408283704730B55C
:10212000002400230C110125A540ABB21AB185880B
:102130001D43858002E085889D43858030BD1AB1AE
:1021400083880B43838002E083888B4383807047BE
:10215000818170470146888970474FF6FF6291423E
:1021600004D0028842F48072028004E002884FF6B4
:10217000FF631A400280704721B1828842F0040256
:10218000828004E082884FF6FB731A408280704799
:1021900002884FF2FF731A40028002880A430280CD
:1021A0007047018841F480510180704721B1028855
:1021B00042F40052028004E002884DF6FF731A4098
:1021C0000280704702460020012901D0108B00E0F8
:1021D000908A70470146088A7047B1F5804F04D154
:1021E000028842F48042028004E002884BF6FF73CA
:1021F0001A40028070470246002013890B400BB141
:10220000012000E000207047CA4302817047F0B50A
:102210000246002000240023002501F00F070126BC
:10222000BE40B4B20B1101269E40B3B2968806EAB6
:1022300003051689264016B10DB1012000E00020EB
:10224000F0BD10B5002201F00F040123A3409AB2A3
:10225000D343038110BD000000300140003800402E
:10226000003C004010B50446FE48844209D10121DB
:102270004806FEF768FD00214FF00070FEF763FD91
:1022800008E001218806FEF75EFD00214FF0806026
:10229000FEF759FD10BD30B502460020002314683A
:1022A00024F002041460146844F00104146000E097
:1022B0005B1C546804F001041CB94FF6FF74A34280
:1022C000F6D1546804F001040CB900206CE08C795C
:1022D000012C04D1146844F08004146003E01468F5
:1022E00024F080041460CC79012C04D1146844F0EB
:1022F0004004146003E0146824F0400414600C7A75
:10230000012C04D1146844F02004146003E0146824
:1023100024F0200414604C7A012C04D1146844F099
:102320001004146003E0146824F0100414608C7A24
:10233000012C04D1146844F00804146003E014680C
:1023400024F008041460CC7A012C04D1146844F001
:102350000404146003E0146824F0040414608C780E
:10236000A407CD7844EA05640D7944EA05444D7923
:1023700044EA05540D886D1E2C43D461146824F082
:1023800001041460002300E05B1C546804F00104A5
:102390001CB14FF6FF74A342F6D1546804F0010457
:1023A0000CB1002000E0012030BD10B50021837A7F
:1023B000012202FA03F1AC4A126842F00102AA4B70
:1023C0001A60A94A1C3212688A43A74B1C331A6050
:1023D000027BCAB9A44A0C3212688A43A24B0C335E
:1023E0001A604288C38842EA03439F4A4032847A93
:1023F00042F834300288838842EA03439A4A4032E2
:10240000847A02EBC4025360027B012A19D1964AF6
:102410000C3212680A43944B0C331A6042880388CA
:1024200042EA0343904A4032847A42F83430C28808
:10243000838842EA03438C4A4032847A02EBC40226
:102440005360C27A3AB9884A121D12688A43864B91
:102450001B1D1A6006E0844A121D12680A43824B53
:102460001B1D1A60028932B97F4A143212688A43EE
:102470007D4B14331A600289012A06D17A4A14323C
:1024800012680A43784B14331A60427B012A06D142
:10249000754A1C3212680A43734B1C331A60724A25
:1024A000126822F00102704B1A6010BD0021817188
:1024B000C171017241728172C1728170C170032158
:1024C000017102214171012101807047664909684B
:1024D00041F00101644A11601146096843F60E7229
:1024E0009143614A11601146096841EA0021116077
:1024F0001146096821F001011160704721B102689D
:1025000042F48032026003E0026822F4803202600A
:102510007047E1B1026842F0800202604FF4C2727B
:10252000125842F480734FF4C27213504FF4CA72BF
:10253000125842F480734FF4CA7213504FF4D2729F
:10254000125842F480734FF4D27213501BE00268A9
:1025500022F0800202604FF4C272125822F480739B
:102560004FF4C27213504FF4CA72125822F480739F
:102570004FF4CA7213504FF4D272125822F480737F
:102580004FF4D2721350704710B502460020936882
:1025900003F08063B3F1806F00D110E0936803F023
:1025A0000063B3F1006F01D1012008E0936803F0EC
:1025B0008053B3F1805F01D1022000E004200428A1
:1025C00079D002F5C07303EB00131B6803F001041C
:1025D00002F5C07303EB00131C600B7A7BB94B7AD6
:1025E0000C8843EA445302F5C07404EB00142468D9
:1025F000234302F5C07404EB0014236010E00B7A4F
:102600004C6843EAC4034C7A234302F5C07404EBDC
:1026100000142468234302F5C07404EB0014236003
:102620008B7A03F00F038B7202F5C07303EB001378
:102630005B6823F00F0402F5C07303EB00135C60CA
:1026400002F5C07303EB00135B688C7A234302F539
:10265000C07404EB001463608B7B1C064B7B44EA64
:10266000034403E000640040006600400B7B44EA42
:102670000323CC7A234302F5C07404EB0014A36057
:102680008B7C1C064B7C44EA03440B7C44EA03230A
:10269000CC7B234302F5C07404EB0014E36002F525
:1026A000C07303EB00131B6843F0010402F5C07311
:1026B00003EB00131C6010BD10B50246002321B1CE
:1026C000012907D002290FD109E09068F94C00EAEE
:1026D00004030BE09068F84C00EA040306E09068FD
:1026E000F64C00EA040301E0002300BF00BFF44CF5
:1026F000181BA34216D007DC83B16FF0806018442A
:1027000070B1022818D111E0B0F5007F10D0ED4C67
:10271000204448B1B0F5003F0ED10BE002230DE09C
:1027200000230BE0002309E0002307E0012305E07C
:10273000012303E0012301E0002300BF00BFD8B262
:1027400010BD21B1012907D002290FD109E082680B
:1027500042F0800282600AE0826842F400428260B5
:1027600005E0826842F40002826000E000BF00BF22
:10277000704710B500F5D87303EB01131B6803F025
:1027800004031372137A53B900F5D87303EB0113E2
:102790001B6840F2FF7404EA5353136009E000F52C
:1027A000D87303EB01131B686FF0604404EAD30392
:1027B000536000F5D87303EB01131B6803F00203A9
:1027C000537200F5D87303EB01135B6803F00F033A
:1027D000937200F5D87303EB01135B681B0AD37483
:1027E00000F5D87303EB01139B68D37200F5D8731F
:1027F00003EB01139B681C0A147300F5D87303EBF9
:1028000001139B681C0C547300F5D87303EB011380
:102810009B681B0E937300F5D87303EB0113DB6801
:10282000D37300F5D87303EB0113DB681C0A14742F
:1028300000F5D87303EB0113DB681C0C547400F52E
:10284000D87303EB0113DB681B0E937421B9C368C3
:1028500043F02003C36003E0036943F020030361F6
:1028600010BD21B9C26842F02002C26003E00269D3
:1028700042F02002026170470246002019B9D36875
:1028800003F0030006E0012903D1136903F00300FC
:1028900000E00020704710B502460B4600204FF6BE
:1028A000FF71BBB9146824F0020444F00104146001
:1028B00000E0491E546804F00304012C01D00029F3
:1028C000F7D1546804F00304012C01D0002032E059
:1028D000012030E0012B13D1146824F003041460AC
:1028E00000E0491E546804F003040CB10029F8D13B
:1028F000546804F003040CB100201CE001201AE02D
:10290000022B17D1146824F0010444F0020414606F
:1029100000E0491E546804F00304022C01D0002991
:10292000F7D1546804F00304022C01D0002002E027
:10293000012000E0002010BD014600200A6822F0BE
:10294000010242F002020A604A6802F00302022A0F
:1029500000D10120704701464FF6FF7200200B683E
:1029600023F002030B6000E0521E4B6803F00203E9
:10297000022B01D1002AF7D14B6803F00203022B8E
:1029800000D001207047014600208A6902F07000E3
:102990007047014600208A69100E704701460020EA
:1029A0008A69C2F3074070471AB143690B43436118
:1029B00002E043698B434361704710B50246002033
:1029C00001F4700343B19369C1F3130423400BB1C5
:1029D00001202DE000202BE001F0807343B153680B
:1029E000C1F3130423400BB1012021E000201FE0BC
:1029F00001F0006343B19368C1F3130423400BB1AA
:102A0000012015E0002013E001F0007343B1D3680A
:102A1000C1F3130423400BB1012009E0002007E0BB
:102A20001369C1F3130423400BB1012000E000201F
:102A300010BD0022244B994202D10023836111E092
:102A4000C1F3130201F000730BB1C2600AE001F0A0
:102A500080630BB1026105E001F000630BB182609D
:102A600000E0426070470246002002EA01030BB119
:102A7000012000E00020704770B504460D46002696
:102A800060692840002872D0B5F5807F69D01DDCD0
:102A9000082D42D006DC012D2DD0022D31D0042D81
:102AA0007FD134E0102D3ED0202D42D0402D78D162
:102AB00045E00000030000040003000800000310CC
:102AC000000100080001FFF77000F030B5F5004F7D
:102AD00061D009DCB5F5007F4AD0B5F5806F4DD0E7
:102AE000B5F5006F5DD150E0B5F5803F2DD0B5F55F
:102AF000003F56D12FE0A0685549FFF7B4FF0646C6
:102B000051E0E0680321FFF7AEFF06464BE0E068C6
:102B10000821FFF7A8FF064645E0E0681021FFF70F
:102B2000A2FF06463FE020690321FFF79CFF06460F
:102B300039E020690821FFF796FF064633E0206957
:102B40001021FFF790FF06462DE060680821FFF78F
:102B50008AFF064627E060681021FFF784FF0646DB
:102B600021E0A0690121FFF77EFF06461BE01BE084
:102B7000A0690221FFF777FF064614E0A06904214F
:102B8000FFF771FF06460EE00BE0A0697021FFF72A
:102B90006AFF064607E060680421FFF764FF064607
:102BA00001E0002600BF00E00026304670BDB1F510
:102BB000007F3AD00FDC202928D006DC01291CD068
:102BC00004291DD0082940D11DE0402921D0B1F5AC
:102BD000807F3AD126E0B1F5004F31D006DCB1F567
:102BE000806F25D0B1F5006F2FD124E0B1F5803F83
:102BF00012D0B1F5003F28D111E0154A826025E0DE
:102C00000822C26022E01022C2601FE00822026196
:102C10001CE01022026119E00822426016E0102236
:102C2000426013E00422426010E0042242600DE0A2
:102C3000042242600AE0002282610422426005E030
:102C4000002282610422426000E000BF00BF7047A2
:102C500001010100002044490860091D0860091DA8
:102C60000860091D086041483F49143108607047F9
:102C700000213D498279002A3AD00A461268036849
:102C80009A430B461A600A1D126803689A430B1D8B
:102C90001A60027911440A6803681A430A60324ACA
:102CA0000832126803689A432F4B08331A601A1DC2
:102CB000126803689A432C4B0C331A604279102A2D
:102CC0000ED11A1F126803681A43274B08331A6083
:102CD0001A1D126803681A43234B0C331A600DE067
:102CE0002149427911440A6803681A430A6005E0E1
:102CF000027911440A6803689A430A607047002108
:102D0000016001710C2141710021817170471649E8
:102D1000103109680143144A1032116070470146AE
:102D20000020114A143212680A400AB1012000E062
:102D3000002070470C49143108607047014600209C
:102D40000022094B1B6803EA0102074B14331B687E
:102D50000B4013B10AB1012000E000207047024986
:102D6000143108607047000000040140FFFF0F00AD
:102D700008B501211020FDF7BFFF4FF6FF70ADF839
:102D8000000010208DF8030003208DF80200694632
:102D90003748FDF7F5FCFF213548FDF7A7FD08BDD5
:102DA00038B5002001F089F80A2000F08AF8FFF712
:102DB000DFFF59E02F48808814281FDD2D488088C8
:102DC0004B281BDA2B48C088232817DD2948C088E8
:102DD0005A2813DA00204FF6E07327A20A21009048
:102DE000084601F09BF900204FF6E07325A24FF44E
:102DF000E17100904FF48C7001F090F90A2C04DC22
:102E00004FF6FF711A48FDF768FD142C06DB282CDD
:102E100004DA4FF6FF711648FDF761FD282C00DB40
:102E200000240A2000F04DF8601CC4B211488088CC
:102E3000B0F58C7F16DD0F488088B0F5A07F11DAE1
:102E40000C48C088B0F5E17F0CDD0A48C088B0F5B9
:102E5000F07F07DA01F058F94FF6FF710448FDF7EB
:102E60003CFD02E002F045F9A4E700BF38BD0000D8
:102E7000001001402A0000204C4544B5C6CAB5D117
:102E8000E9000000B7B5BBD800000000014601EB27
:102E9000C1024FF0E0235A6101221A6100229A61B7
:102EA00000BF4FF0E022106900F001021AB100F4F7
:102EB0008032002AF5D000224FF0E0231A619A6197
:102EC0007047014642F228324A434FF0E0235A61EC
:102ED00001221A6100229A6100BF4FF0E0221069BE
:102EE00000F001021AB100F48032002AF5D000226D
:102EF0004FF0E0231A619A61704710B5FDF78EFD1F
:102F00004FF48030FDF7AAFDFDF7E7FD012820D141
:102F10000020FDF728FE4FF48060FDF72DFE002015
:102F2000FDF733FE4FF4E0114FF44030FDF7FEFDA6
:102F30000120FDF707FE00BF3920FDF7B2FD002894
:102F4000FAD00220FDF701FE00BFFDF707FE0828BA
:102F5000FBD110BD00B587B0012140F20510FDF78F
:102F6000CBFE01214804FDF7D4FE0420ADF8180083
:102F700018208DF81B0003208DF81A0006A974484C
:102F8000FDF7FEFB0820ADF8180010208DF81B009F
:102F900003208DF81A0006A96E48FDF7F1FB082002
:102FA000ADF8180004208DF81B0003208DF81A00DE
:102FB00006A96748FDF7E4FB4FF416500290002085
:102FC000ADF80C00ADF80E00ADF81000ADF814002F
:102FD0000C20ADF8120002A95F48FDF734FF012173
:102FE0005D48FDF7BCFF012240F225515A48FDF72C
:102FF000C2FF40215848FEF79AF84FF4C060FEF730
:10300000E3F826208DF8040000208DF8050001204B
:103010008DF806008DF8070001A8FEF7DAF807B072
:1030200000BD10B540214C48FEF781F840F2255113
:103030004948FEF785F8F0B14748FEF701F84749DF
:10304000087008214348FDF748FC0120FFF739FFCD
:10305000424801784048FDF7EFFF00BF80213E481D
:10306000FEF758F80028F9D00220FFF72AFF0821C0
:103070003848FDF734FC10BD08B5002000F01DFFF6
:103080000A20FFF71EFFFFF765FF08213148FDF713
:1030900026FC59E03248808814283CDD304880887E
:1030A0004B2838DA2E48C088B0F5CD7F33DD2C4868
:1030B000C088B0F5E67F2EDA00204FF6E07329A233
:1030C0000A210090084601F029F800204FF6E0732D
:1030D00031A2322100900A2001F020F800204FF6A2
:1030E000E0733AA2642100900A2001F017F8002052
:1030F0004FF6E073434AB42100900A2001F00EF825
:1031000000204FF6E07340A24FF4E17100904FF4BD
:103110008C7001F003F812488088B0F58C7F11DDC7
:103120000F488088B0F5A07F0CDA0D48C088B0F554
:10313000E17F07DD0A48C088B0F5F07F02DA00F0D1
:10314000E3FF02E001F0D5FFA4E700BF08BD0000E7
:1031500000080140002001400044004028000020F9
:103160002A0000205253343835B4AEBFDA434F4DF5
:1031700032B2E2CAD4A3ACCDA8B9FDB4AEBFDAD6A0
:10318000FACAD6B2E9BFB4B7A2CBCDBACDBDD3CAC5
:10319000D5CAFDBEDD000000D7A2D2E2A3BABDAB06
:1031A000BFAAB7A2B0E5C9CFB5C4412042B6CBD7BC
:1031B000D3B6D4D3A6BDD3B5BD555342D7AA343860
:1031C00035B6CBD7D3B5C44120420000D4DAB4AE73
:1031D000BFDAD6FACAD6C9CFB2A8CCD8C2CAC9E813
:1031E000B6A8CEAA39363030A3ACCAFDBEDDB8F1E0
:1031F000CABDCEAA38A3ACCEDEC6E6C5BCD0A3D12C
:10320000E9000000F0430508B7B5BBD80000000096
:10321000014600BF704770B504460D46E1B2304824
:10322000FDF70AFF00BF80212D48FDF773FF00283E
:10323000F9D0204670BD00B587B0012144F20500E9
:10324000FDF75AFD4FF40070ADF8180003208DF81B
:103250001A0018208DF81B0006A92248FDF790FAE5
:103260004FF48060ADF8180004208DF81B0006A90B
:103270001C48FDF785FA4FF4C060FDF7A5FF252037
:103280008DF8140000208DF8150001208DF816002F
:103290008DF8170005A8FDF79CFF4FF4165001901C
:1032A0000020ADF80800ADF80A00ADF80C00ADF84C
:1032B00010000C20ADF80E0001A90948FDF7C3FD70
:1032C00001210748FDF74BFE012240F22551044839
:1032D000FDF751FE40210248FDF729FF07B000BD70
:1032E000003801400008014008B501210820FDF721
:1032F00003FD4FF44060ADF8000003208DF802009C
:1033000010208DF8030069469648FDF739FA4FF40E
:1033100080619448FDF7E1FA4FF400619148FDF7B0
:10332000DCFA08BD08B54FF40060ADF800000320DA
:103330008DF8020010208DF8030069468948FDF7DA
:103340001FFA08BD08B54FF40060ADF80000482032
:103350008DF8030069468348FDF712FA08BD10B5E1
:10336000FFF7E0FF4FF400617E48FDF7B6FA4FF437
:1033700080617C48FDF7B1FA0520FFF787FD4FF427
:1033800000617848FDF7ABFA0620FFF77FFD4FF4A8
:1033900080617448FDF7A3FA10BD10B5FFF7C2FFB6
:1033A0004FF480616F48FDF79AFA4FF400616D4861
:1033B000FDF795FA4FF480616A48FDF78EFA062012
:1033C000FFF764FD4FF400616648FDF786FA0620BA
:1033D000FFF75CFD10BD10B54FF480616148FDF74B
:1033E0007EFAFFF79FFF4FF400615E48FDF777FA22
:1033F0000220FFF74BFD4FF480615A48FDF76DFA4C
:103400000520FFF743FD4FF480615648FDF767FA4A
:1034100010BD10B54FF480615248FDF760FAFFF718
:1034200081FF4FF400614F48FDF757FA0220FFF784
:103430002DFD4FF480614B48FDF74FFA0520FFF753
:1034400025FD4FF480614748FDF749FA10BD10B5DE
:103450000024FFF777FF4FF400614248FDF73DFA83
:103460000120FFF713FD4FF480613E48FDF735FA68
:103470000120FFF70BFD07E0601CC4B2FA2C03DD4E
:10348000FFF78BFF012010BD4FF400613548FDF7B9
:103490000AFA0028F0D14FF480613248FDF71FFA94
:1034A0000020F0E770B504460025FFF73BFF4FF41E
:1034B00080612C48FDF713FA00BF22E004F0800081
:1034C000002805DD4FF400612648FDF706FA04E008
:1034D0004FF400612348FDF702FA6006040E4FF432
:1034E00080612048FDF7F9F90220FFF7CFFC4FF487
:1034F00080611C48FDF7F3F90220FFF7C7FC681C48
:10350000C5B2082DDADB70BD70B505460026002473
:10351000FFF718FF00BF1BE04FF480611148FDF773
:10352000DEF90220FFF7B2FC4FF480610D48FDF791
:10353000D4F96006040E4FF400610A48FDF7B3F9B0
:1035400008B1601CC4B20120FFF7A0FC701CC6B219
:10355000082EE1DB15B9FFF75CFF01E0FFF73BFF49
:10356000204670BD000C014070B504460026FFF7F0
:10357000F6FE2546E11704EB11610912A02202EBC9
:103580004101C8B2FFF78EFFFFF761FFE11704EBBF
:1035900011610912A4EB0121C8B2FFF783FFFFF705
:1035A00056FFFFF7DCFEA120FFF77CFFFFF74FFF80
:1035B0000020FFF7A9FF0646FFF72BFFFFF7EDFE00
:1035C000304670BD70B504460025FFF7C8FE26469C
:1035D000E11704EB11610912A02202EB4101C8B20C
:1035E000FFF760FFFFF733FFE11704EB11610912EA
:1035F000A4EB0121C8B2FFF755FFFFF728FFFFF743
:10360000AEFEA120FFF74EFFFFF721FF0120FFF7DD
:103610007BFF05464FF6FF7000EA05250020FFF707
:1036200073FF0543FFF7B9FE284670BD70B5044629
:103630000E46FFF794FE2546E11704EB11610912CF
:10364000A02202EB4101C8B2FFF72CFFFFF7FFFEFB
:10365000E11704EB11610912A4EB0121C8B2FFF7D5
:1036600021FFFFF7F4FE3046FFF71CFFFFF7EFFEE8
:10367000FFF793FE0A20FFF724FC70BD70B50446E7
:103680000D46FFF76CFE2646E11704EB11610912A7
:10369000A02202EB4101C8B2FFF704FFFFF7D7FEFB
:1036A000E11704EB11610912A4EB0121C8B2FFF785
:1036B000F9FEFFF7CCFE2812FFF7F4FEFFF7C7FE76
:1036C000E8B2FFF7EFFEFFF7C2FEFFF766FE0A2043
:1036D000FFF7F7FB70BD30B585B00024002000F087
:1036E000ECFB0A20FFF7EDFBFFF7FEFD03E184484A
:1036F0008088AA2857DD82488088E62853DA8048E7
:10370000C0887D284FDD7E48C088AF284BDA002076
:103710004FF6E0737BA20A210090084600F0FEFC01
:1037200000204FF6E0737DA21B2100900A2000F0DC
:10373000F5FC00204FF6E0737DA22C2100900A20BA
:1037400000F0ECFC00204FF6E07380A23D210090D9
:103750000A2000F0E3FC00204FF6E07382A264210F
:1037600000900A2000F0DAFC00204FF6E07384A2FB
:10377000962100900A2000F0D1FC00204FF6E07363
:1037800083A2A72100900A2000F0C8FC00204FF679
:10379000E07383A24FF4E17100904FF48C7000F05D
:1037A000BDFC01F0A6FC01217F48FDF77CF8012853
:1037B00042D10A20FFF785FB01217B48FDF773F812
:1037C000012832D1601CC0B2044601460020FFF738
:1037D0002DFF642094FBF0F03030C0B28DF80C0067
:1037E000642094FBF0F100FB11400A2190FBF1F002
:1037F0003030C0B28DF80D00642094FBF0F100FB76
:1038000011400A2190FBF1F201FB12003030C0B2EE
:103810008DF80E0000208DF80F004FF6E07303AA1C
:1038200096210090A02000F079FC00BF01215E48A5
:10383000FDF739F80028F9D108215C48FDF733F885
:10384000F0BB0A20FFF73DFB08215848FDF72BF895
:1038500078BB0020FFF788FE0546642095FBF0F05A
:103860003030C0B28DF80400642095FBF0F100FB0D
:1038700011500A2190FBF1F03030C0B28DF80500F4
:10388000642095FBF0F100FB11500A2190FBF1F24E
:1038900001FB12003030C0B28DF8060000208DF818
:1038A00007004FF6E07301AAA7210090A02000F0C6
:1038B00035FC00BF08213D48FCF7F5FF002800E07B
:1038C00000E0F7D00E488088B0F58C7F11DD0C4801
:1038D0008088B0F5A07F0CDA0948C088B0F5E17F98
:1038E00007DD0748C088B0F5F07F02DA00F00CFC75
:1038F00002E001F0FEFBFAE600BF05B030BD0000BB
:103900002A00002041543234433032B4E6B4A2C617
:10391000F7B6C1D0B4CAB5D1E90000005042313089
:10392000205042313120CAC7494943BDD3BFDA00D4
:10393000B0B44B5F5550BCFC3AB6D441543234431A
:103940003032D0B4CAFDBEDD00000000B0B44B5F21
:10395000444F574DBCFC3AB6D44154323443303214
:10396000B6C1CAFDBEDD0000D0B4CAFDBEDDB5C41F
:10397000B7B6CEA7CAC73A20302D32353500000081
:10398000577269746520646174612069733A00003C
:103990005265616420646174612069733A000000BB
:1039A000B7B5BBD800000000000801400018014076
:1039B00000B587B0012140F20520FDF79DF94FF4D5
:1039C0000040FDF7FDF88748FDF76CFC0220ADF8DC
:1039D000180000208DF81B0003208DF81A0006A99E
:1039E0008148FCF7CDFE002001908DF808008DF88D
:1039F00009004FF4602003900020049001208DF80E
:103A0000140001A97748FDF774FC07230122114631
:103A10007448FDF706FD01217248FDF796FC7148D8
:103A2000FDF7B5FC00BF6F48FDF7B6FC0028FAD1E2
:103A30006C48FDF7BBFC00BF6A48FDF7BCFC0028E2
:103A4000FAD101216748FDF7C0FC07B000BD2DE9A0
:103A5000FF47002000F031FA0A20FFF732FAFFF7A3
:103A6000A7FFBAE061488088F52832DD5F4880888A
:103A7000B0F5987F2DDC5D48C088232829DD5B48A0
:103A8000C0885A2825DA00204FF6E07358A20A2190
:103A90000090084600F042FB00204FF6E07357A26A
:103AA000322100900A2000F039FB00204FF6E0732D
:103AB0005DA2642100900A2000F030FB00204FF648
:103AC000E0735DA24FF4E17100904FF48C7000F050
:103AD00025FB0024A24613E001214248FDF775FCB6
:103AE00000BF02213F48FDF7E1FD0028F9D03D4825
:103AF000FDF7FEFC204484B20AF1010000F0FF0A49
:103B0000BAF10A0FE8DB0A2094FBF0F084B22046F9
:103B100004F0AFFD07464FF06632494B04F0BCFDA0
:103B200005460022474B04F01FFCCDE9000104F0DC
:103B300039FB81464449484605F040FA054605F000
:103B4000F1F984B2642094FBF0F03030C0B28DF80B
:103B500008002E208DF80900642094FBF0F100FB92
:103B600011400A2190FBF1F03030C0B28DF80A000C
:103B7000642094FBF0F100FB11400A2190FBF1F26C
:103B800001FB12003030C0B28DF80B0056208DF8CA
:103B90000C0000208DF80D004FF6E07302AA64219E
:103BA00000906B2000F0BAFA10488088B0F58C7F46
:103BB00011DD0E488088B0F5A07F0CDA0B48C08874
:103BC000B0F5E17F07DD0948C088B0F5F07F02DA83
:103BD00000F09AFA02E001F08CFA43E700BFBDE87A
:103BE000FF87000000240140000801402A00002057
:103BF0004144D7AABBBBCAB5D1E90000CDA8B9FDE5
:103C0000B5F7BDDA414443C4A3BFE9C4DAB5C4B5CE
:103C1000E7CEBBC6F7BFC9D2D4B8C4B1E4BCECB2DE
:103C2000E2B5E7D1B90000004144BCECB2E2D6B540
:103C3000CAC7A3BA00000000B7B5BBD80000000097
:103C400066660A400000B0400000C84208B5012185
:103C50004FF4B070FDF750F803208DF8020041F2E8
:103C60000100ADF8000018208DF803006946A14856
:103C7000FCF786FD4FF63370ADF8000069469E48AC
:103C8000FCF77EFD4FF68070ADF8000069469B485A
:103C9000FCF776FD08BD00B597B00220019000202A
:103CA00002900520039000200690049001200590CA
:103CB000000707900620089000200A9010200B9023
:103CC00000021190800013900020099001A8159027
:103CD000169001210802FDF702F808A8FDF7BCFDC7
:103CE00001210620FDF720FF17B000BD84490880A0
:103CF00070478349891C0880704710B5FFF7A6FFFD
:103D0000FFF7C9FFE920FFF7F1FF2020FFF7F1FFE0
:103D10001120FFF7EBFF4FF4FA7401E0601E84B24C
:103D2000002CFBDC3A20FFF7E1FF5520FFF7E1FF15
:103D3000D120FFF7DBFF0020FFF7DBFF6520FFF757
:103D4000D8FF1F20FFF7D5FFD020FFF7CFFF0720B8
:103D5000FFF7CFFF0720FFF7CCFF8020FFF7C9FF59
:103D60003620FFF7C3FF4820FFF7C3FFC120FFF74E
:103D7000BDFF1020FFF7BDFF1020FFF7BAFF0220A4
:103D8000FFF7B7FF0220FFF7B4FFC020FFF7AEFF39
:103D90000020FFF7AEFF3520FFF7ABFF0020FFF755
:103DA000A8FF0020FFF7A5FF0120FFF7A2FF0220D8
:103DB000FFF79FFFC420FFF799FF0320FFF799FF4C
:103DC000C520FFF793FF0120FFF793FFD220FFF7F5
:103DD0008DFF0120FFF78DFF2220FFF78AFFE720EC
:103DE000FFF784FF3820FFF784FFF320FFF77EFF03
:103DF0000820FFF77EFF1220FFF77BFF1220FFF75E
:103E000078FF0820FFF775FFC820FFF76FFF01203C
:103E1000FFF76FFF5220FFF76CFF3720FFF769FFB6
:103E20001020FFF766FF0D20FFF763FF0120FFF76B
:103E300060FF0420FFF75DFF5120FFF75AFF772056
:103E4000FFF757FF0120FFF754FF0120FFF751FF55
:103E50000D20FFF74EFF0820FFF74BFF8020FFF7F4
:103E600048FF0020FFF745FF2920FFF73FFF10BD67
:103E700030B504460D462A20FFF738FF2012FFF721
:103E800038FFE0B2FFF735FF1012FFF732FFD0B274
:103E9000FFF72FFF2B20FFF729FF2812FFF729FF3D
:103EA000E8B2FFF726FF1812FFF723FFD8B2FFF79B
:103EB00020FF2C20FFF71AFF30BD70B5064640F2F8
:103EC000DF1340F23F1200210846FFF7D1FF002424
:103ED0000BE0002504E03046FFF70BFF681C85B2BD
:103EE000B5F5F07FF7DB601C84B2B4F5A07FF0DBA2
:103EF00070BD000000200140001401400018014086
:103F0000FE07006C70B504460D4616462B46224649
:103F100029462046FFF7ACFF3046FFF7EAFE70BDAA
:103F20002DE9FF4F85B081468A46002003908346E5
:103F30000798A0EB09050898A0EB0A06CDF80490B5
:103F4000CDF808A0002D01DD012705E00DB90027FF
:103F500002E04FF0FF376D42002E02DD4FF0010806
:103F600006E016B94FF0000802E04FF0FF38764245
:103F7000B54201DD2C4600E03446002004901EE0EE
:103F8000129ADDE90101FFF7BDFF03982844039071
:103F9000B3440398A04206DD0398001B03900198E8
:103FA000384480B20190A34505DDABEB040B0298C9
:103FB000404480B202900498401C80B20490611C7E
:103FC00004988842DCDD09B0BDE8F08F2DE9F047A8
:103FD00004460D4616461F46DDF82080B44201DC3B
:103FE000BD4201DDBDE8F0873B463246294620460A
:103FF000FFF73EFF301B401C84B2781B401C85B28B
:104000000BE0A94602E04046FFF773FEB9F100005D
:10401000A9F101011FFA81F9F5D1201EA4F10101D6
:104020008CB2EED100BFDDE72DE9F04104460D462C
:10403000174605F1010C1FFA8CF304F1010C1FFA6D
:104040008CF2A5F1010C1FFA8CF1A4F1010C1FFAFE
:104050008CF0FFF70DFF002604E03846FFF749FE1D
:10406000701CC6B2092EF8DB211D8AB2211F88B24E
:104070002B462946FFF7FCFE002604E03846FFF7F2
:1040800038FE701CC6B2092EF8DB281D83B2281F2B
:1040900081B222462046FFF7EBFE002604E03846B8
:1040A000FFF727FE701CC6B2092EF8DBBDE8F081D1
:1040B0002DE9F0478046894615461E460027002414
:1040C000A24609EB0600401E83B208EB0500401E25
:1040D00082B249464046FFF7CBFE05FB06F04FEAA9
:1040E000400A00BF9949601C0F5C4FF6FF7000EA60
:1040F00007270846005D07433846FFF7FAFDA41C72
:104100005445EFDBBDE8F08710B54FF4F0734FF482
:10411000A07200210846FFF7CBFF10BD2DE9FF4F2D
:1041200089B005460F4614460026A1E02078802875
:1041300045DA2078A0F12006360185480644102291
:10414000314601A800F0D1FB07F10F0083B2E81D52
:1041500082B239462846FFF78BFE4FF000091FE078
:1041600001A810F809B04FF0000812E00BF0800031
:10417000802803D10C98FFF7BCFD02E01698FFF7EA
:10418000B8FD4FEA4B604FEA106B08F1010000F0F8
:10419000FF08B8F1080FE9DB09F1010000F0FF09A1
:1041A000B9F1100FDCDB641C05F1080085B2B5F530
:1041B0009C7F5DDB002507F1100087B258E0207876
:1041C00081381FFA80FABE200AFB00F694F801A09D
:1041D000BAF17F0F04DAAAF140001FFA80FA03E077
:1041E000AAF141001FFA80FA564476015948064464
:1041F0002022314601A800F078FB07F10F0083B2BE
:1042000005F10F0082B239462846FFF731FE4FF024
:1042100000081FE001A810F808B04FF0000912E0F4
:104220000BF08000802803D10C98FFF762FD02E0BC
:104230001698FFF75EFD4FEA4B604FEA106B09F1ED
:10424000010000F0FF09B9F1080FE9DB08F10100F6
:1042500000F0FF08B8F1200FDCDB05F1100085B29B
:10426000B5F5987F03DD002507F1100087B2A41C87
:10427000207800287FF45AAF0DB0BDE8F08F2DE90B
:10428000F04F91B00746884614469A46002656E0FD
:104290002078813885B2BE2005FB00F665787F2D39
:1042A00003DAA5F1400085B202E0A5F1410085B234
:1042B0002E44C6EB8616284806443F2231466846FF
:1042C00000F013FB08F1140083B207F1170082B26B
:1042D00041463846FFF7CCFD4FF0000920E01DF8BD
:1042E000090010904FF0000B13E0109800F08000D0
:1042F000802803D15046FFF7FCFC02E01A98FFF734
:10430000F8FC10984006000E10900BF1010000F030
:10431000FF0BBBF1080FE8DB09F1010000F0FF091A
:10432000B9F13F0FDBDB07F1150087B2B7F5957FD9
:1043300004DD002708F115001FFA80F8A41C20787E
:104340000028A5D111B0BDE8F08F0000429300080D
:104350004E465D00004C5D0082FC680000B585B0F3
:1043600001210520FCF7C8FC01214807FCF7D1FC1E
:104370001020ADF8100003208DF8120000208DF8F9
:10438000130004A98948FCF7FBF910218748FCF7C2
:10439000A4FA002000900190029002200390694648
:1043A0000020FDF71EFD01210020FDF737FD002153
:1043B0000846FDF794FD05B000BD2DE9FF5F4FF005
:1043C00000090020FFF779FD0A20FEF77AFDFFF7CC
:1043D000C5FFE6E076488088AA282ADD74488088F0
:1043E000E62826DA7248C088B0F5967F21DD70484D
:1043F000C088B0F5B17F1CDC00204FF6E0736DA2E1
:104400000A2100900846FFF789FE00204FF6E0736E
:104410006BA2642100900A20FFF780FE00204FF677
:10442000E0736DA24FF4E17100904FF48C70FFF7D0
:1044300075FE0024A14696E04FF0000B76E009EBF4
:10444000C90000EB09104FF6FF7101EA0014214684
:104450000020FDF744FD204604F00BF907464FF01D
:1044600066325F4B04F018F9054600225D4B03F0FD
:104470007BFFCDE9000103F095FE82465A49504684
:1044800004F09CFD054604F04DFD84B2642094FBCD
:10449000F0F03030C0B28DF808002E208DF8090001
:1044A000642094FBF0F100FB11400A2190FBF1F035
:1044B0003030C0B28DF80A00642094FBF0F100FBAC
:1044C00011400A2190FBF1F201FB12003030C0B222
:1044D0008DF80B0056208DF80C0000208DF80D0093
:1044E0004FF6E07302AA64210090B420FFF716FE95
:1044F0000A20FEF7E6FC00F0FCFD2D488088B0F5B0
:104500008C7F0FDD2A488088B0F5A07F0ADA284822
:10451000C088B0F5E17F05DD2548C088B0F5F07FA3
:1045200000DA06E00BF1010000F0FF0BBBF1140F05
:1045300085DB00BF1E488088B0F58C7F0FDD1C48EE
:104540008088B0F5A07F0ADA1948C088B0F5E17F0D
:1045500005DD1748C088B0F5F07F00DA07E009F103
:10456000010000F0FF09B9F10A0F7FF765AF00BF46
:104570000F488088B0F58C7F11DD0D488088B0F53C
:10458000A07F0CDA0A48C088B0F5E17F07DD084853
:10459000C088B0F5F07F02DAFFF7B6FD02E000F068
:1045A000A8FD17E700BFBDE8FF9F0000000801401D
:1045B0002A000020444143B2E2CAD42E2E2E00002D
:1045C000546865204F757470757420566F6C6F67F2
:1045D000652069733A000000B7B5BBD80000000041
:1045E00066660A4000FEAF400000C84200B587B0D2
:1045F000FBF7C5FF012141F20400FCF77DFBE02041
:10460000ADF8180018208DF81B0003208DF81A0053
:1046100006A96F48FCF7B4F8E0216D48FCF75DF996
:104620000020ADF804004FF48270ADF806000020C1
:10463000ADF808000220ADF80A000120ADF80C002A
:104640004002ADF80E003820ADF810000020ADF8A3
:1046500012000720ADF8140001215E48FDF747FD68
:1046600001A95C48FDF79EFC07B000BD70B505468A
:10467000002406E0601C84B2B4F57A7F01DDFF20DF
:1046800070BD02215448FDF7B6FD0028F2D029463E
:104690005148FDF75DFD002400BF01214E48FDF7A4
:1046A000AAFD0028F9D0601C84B2B4F57A7F01DD40
:1046B000FF20E5E74848FDF74DFDC0B2E0E700B553
:1046C00087B0FBF75CFF01210820FCF715FB0121F7
:1046D0008803FCF71EFB4FF46040ADF8180018206B
:1046E0008DF81B0003208DF81A0006A93B48FCF743
:1046F00047F80020ADF804004FF48270ADF80600D2
:104700000020ADF80800ADF80A00ADF80C004FF439
:104710000070ADF80E003820ADF810000020ADF8A4
:1047200012000720ADF8140001212B48FDF7DFFC33
:1047300001A92948FDF736FCFF20FFF797FF07B0D6
:1047400000BD10B50446234800884FF6C7710840E5
:1047500020490880084600882043088001211D4820
:10476000FDF7C5FC10BD10B504461B4800884FF688
:10477000C77108401849088008460088204308800F
:1047800001211548FDF7B3FC10BD70B504460025A6
:1047900007E0681C85B242F21070854201DDFF20FF
:1047A00070BD02210B48FDF726FD0028F1D02146FF
:1047B0000848FDF7CDFC00BF01210648FDF71BFDB1
:1047C0000028F9D00348FDF7C5FCC0B2E8E70000B7
:1047D000000801400030014000380040000C01405A
:1047E00010B500244FF40051FE48FCF778F84FF460
:1047F0008041FC48FCF771F84FF48051FA48FCF70F
:104800006CF89020FFF732FF0020FFF72FFF002009
:10481000FFF72CFF0020FFF729FFFF20FFF726FFFF
:1048200044EA0024FF20FFF721FF04434FF4005126
:10483000EC48FCF752F8204610BD08B501214FF4B2
:104840008470FCF759FA4FF4C040ADF80000102016
:104850008DF8030003208DF802006946E148FBF75C
:104860008FFF4FF4C041DF48FCF737F84FF480501A
:10487000ADF8000010208DF803006946DA48FBF718
:104880007FFF4FF48051D848FCF727F8FFF717FF58
:10489000FFF7A6FF08BD70B5002400BF641CB4F18B
:1048A000704F01D3FF2070BD4FF40051CD48FCF78D
:1048B00016F84FF48041CB48FCF70FF84FF48051C5
:1048C000C948FCF70AF80520FFF7D0FEFF20FFF7E4
:1048D000CDFE05464FF40051C248FBF7FEFF05F040
:1048E00001000028DAD100BFDDE770B505460C46AF
:1048F00016461820FFF737FFFFF7CDFF4FF40051A2
:10490000B848FBF7ECFF4FF48041B648FBF7E5FFF2
:104910004FF48051B448FBF7E0FF0320FFF7A6FEF9
:10492000C4F30740FFF7A2FEC4F30720FFF79EFE83
:10493000E0B2FFF79BFE04E0FF20FFF797FE287030
:104940006D1C301EA6F101018EB2F5D14FF400515D
:10495000A448FBF7C2FF70BD10B54FF40051A14849
:10496000FBF7BDFF4FF480419E48FBF7B6FF4FF4C5
:1049700080519D48FBF7B1FF0620FFF777FE4FF40B
:1049800000519848FBF7A9FF10BD10B50446FFF78A
:1049900082FFFFF7E1FF4FF400519248FBF79FFFC2
:1049A0004FF480418F48FBF798FF4FF480518E48B9
:1049B000FBF793FF2020FFF759FEC4F30740FFF7F2
:1049C00055FEC4F30720FFF751FEE0B2FFF74EFE9D
:1049D0004FF400518348FBF780FF10BD10B5FFF77F
:1049E0005AFFFFF7B9FF4FF400517E48FBF777FFFE
:1049F0004FF480417B48FBF770FF4FF480517A48B9
:104A0000FBF76BFFC720FFF731FE4FF400517548ED
:104A1000FBF763FF10BD2DE9F04107460D46144634
:104A2000EEB2C6F58076B44200DC26463EE0FFF7E3
:104A300032FFFFF791FF4FF400516A48FBF74FFF39
:104A40004FF480416748FBF748FF4FF480516648B8
:104A5000FBF743FF0220FFF709FEC5F30740FFF70E
:104A600005FEC5F30720FFF701FEE8B2FFF7FEFDE4
:104A70004FF0000807E03878FFF7F8FD7F1C08F1D9
:104A800001001FFA80F8B045F5DB4FF4005155489E
:104A9000FBF723FFB44200D109E03544A01B84B2E8
:104AA000FF2C02DD4FF4807600E02646BFE700BF12
:104AB000BDE8F0812DE9F04781460F4616461820E3
:104AC000FFF751FEC7F30F38C7F30B0ACAF580543E
:104AD000A64200DA344647E04FEA08314FF48052EC
:104AE0004248FFF702FF002508E00AEB05003F49B6
:104AF000085CFF2800D003E0681C85B2A542F4DB07
:104B000000BFA54217DA4FEA0830FFF73EFF002545
:104B100007E019F805000AEB0501344A5054681CF7
:104B200085B2A542F5DB4FEA08314FF480522F4899
:104B3000FFF771FF04E0224639464846FFF76BFF56
:104B4000B44200D111E0A1442744301B86B208F1E1
:104B500001001FFA80F84FF0000AB6F5805F02DB13
:104B60004FF4805400E03446B6E700BFBDE8F0875C
:104B700000B589B01EA30FCBCDE90723CDE9050110
:104B80000020FFF79AF90A20FEF79BF9D9E01C48AC
:104B90008088AA2863DD1A488088E6285FDA1848EA
:104BA000C088D7285BDD1648C088B0F5847F56DC06
:104BB00000204FF6E07313A20A2100900846FFF789
:104BC000ADFA00204FF6E07313A23A2100900A20BC
:104BD000FFF7A4FA00204FF6E07314A24E210090D4
:104BE0000A202FE000200140000C01406C00002052
:104BF0007777772E7072656368696E2E636F6D00CC
:104C00002A000020464C4153482D454E323551363E
:104C100034CAB5D1E90000004B5F75703A20666C6C
:104C20006173682077726974652E2E004B5F646F24
:104C3000776E3A20666C61736820726561642E2E0F
:104C400000000000FFF76AFA00204FF6E0733FA271
:104C50004FF4E17100904FF48C70FFF75FFA002081
:104C60004FF6E0733BA21C2100900A20FFF756FA92
:104C700001213C48FBF717FE012827D10A20FEF747
:104C800020F901213748FBF70EFE012817D1102229
:104C9000002105A8FFF70EFF00204FF6E073AFF2EA
:104CA000B002622100900A20FFF738FA00204FF688
:104CB000E0732DA2762100900A20FFF72FFA00BFA3
:104CC00001212848FBF7EFFD0028F9D108212B48E6
:104CD000FBF7E9FDE0B90A20FEF7F3F808212748C1
:104CE000FBF7E1FD68B91022002101A8FFF7FDFDE7
:104CF00000204FF6E07301AA9E2100900A20FFF7E2
:104D00000DFA00BF08211D48FBF7CDFD0028F9D0A2
:104D10001B488088B0F58C7F11DD19488088B0F57C
:104D2000A07F0CDA1648C088B0F5E17F07DD144893
:104D3000C088B0F5F07F02DAFFF7E6F902E000F094
:104D4000D8F924E700BF09B000BD0000B7B5BBD853
:104D500000000000466C61736820537563636573DF
:104D60007321000000080140466C6173682057728F
:104D7000697465205375636365737300001801409F
:104D80002A0000202DE9FE4380461820FFF7D9FCB9
:104D9000002426E04021FE48FBF7A1FD4046FFF736
:104DA000F4FCFF20FFF7F1FC2DF814003DF814008F
:104DB0004FF6FF7101EA00202DF81400FF20FFF7E5
:104DC000E4FC3DF8141008432DF814003DF81400DD
:104DD000C0102DF814004021ED48FBF77EFD601C4B
:104DE000C4B2052CD6DB002416E0601CC5B20FE06F
:104DF0003DF814003DF81510884207DA3DF81460BC
:104E00003DF815002DF814002DF81560681CC5B28A
:104E1000052DEDDB601CC4B2042CE6DB0425002765
:104E2000012404E03DF814000744601CC4B2AC4205
:104E3000F8DB0320B7FBF0F086B23046BDE8FE8316
:104E40002DE9F04704460D46D020FFF79BFF0646AC
:104E50009020FFF797FF0746D020FFF793FF80468B
:104E60009020FFF78FFF8146464503DDA6EB080043
:104E7000208002E0A8EB060020804F4503DDA7EB71
:104E80000900288002E0A9EB0700288020885A2822
:104E900002DC28885A2802DDFF20BDE8F08706EBF7
:104EA000080000EBD071C1F34F01218007EB09002E
:104EB00000EBD071C1F34F012980208840F6E671E4
:104EC000884208DC2088642805DB2888884202DCC8
:104ED0002888642801DAFF20DFE70020DDE72DE9DC
:104EE000F0410746884614461D460020FEF7E5FFC0
:104EF0004FF4784241463846FFF796F800261AE00C
:104F000029462046FFF79CFF58B9701CC6B20A2EEE
:104F100007DD002241463846FFF786F80020BDE84D
:104F2000F08119F1020F06D9002241463846FFF7F9
:104F30007BF8FF20F3E7E3E72DE9F04186B06B460D
:104F400002AA0A210846FFF7CAFF10B106B0BDE861
:104F5000F0814FF4FA70FDF7B4FF0DF102030DF18B
:104F60000A0240F2D5110A20FFF7B9FF00B1EDE7C0
:104F70004FF4FA70FDF7A5FF01AB03AA0A2140F236
:104F80003510FFF7ACFF00B1E0E74FF4FA70FDF722
:104F900098FF0DF106030DF10E0240F2D51140F21B
:104FA0003510FFF79CFF00B1D0E74FF4FA70FDF722
:104FB00088FFBDF80810BDF80A20881800EBD071F2
:104FC000C1F34F01ADF81410BDF80010BDF8042076
:104FD000881800EBD071C1F34F01ADF81010BDF887
:104FE0000E10BDF80C20881800EBD071C1F34F01F2
:104FF000ADF81610BDF80610BDF80220881800EBB9
:10500000D071C1F34F01ADF81210BDF81610BDF804
:105010001420881A03F0A6FF064631465D4803F0C7
:10502000A3FE0446BDF81210BDF81020881A03F044
:1050300099FF06463146584803F096FE0546BDF8EE
:10504000160003F0A7FF8046214603F0B7FF07468E
:10505000524904F07FF8064603F048FF00B2504979
:105060004880BDF8120003F095FF8046294603F002
:10507000A5FF07464B4904F06DF8064603F036FFDE
:1050800000B24749888008468460C560592008708E
:10509000102245494248FFF70DFD00BF56E708B50D
:1050A00001212020FBF728FE4020ADF80000102051
:1050B0008DF8030003208DF8020069463448FBF7A1
:1050C0005FFB8020ADF8000048208DF803006946A2
:1050D0002F48FBF755FBFFF789FA10223249304879
:1050E000FFF703FC2E480078592801D0FFF724FF72
:1050F00008BD2DE9F0412D49881EFFF7A1FE10B132
:10510000FF20BDE8F0812649B1F9020003F02AFF33
:1051100006462649891E088803F03CFF07462048BA
:105120008168384603F04AFF0546314603F0BAFD70
:10513000044603F0F7FE1D49891E88801849B1F91D
:10514000040003F00FFF06461849891E488803F043
:1051500021FF07461248C168384603F02FFF054675
:10516000314603F09FFD044603F0DCFE0F49891E23
:10517000C88008468088B0F5A07F02DB40F23F106F
:1051800088800A48801EC088B0F5F07F14DB0FE0ED
:1051900000140140008095430080E54300809A435D
:1051A0006C1000200080EA4320465D002C000020A7
:1051B00040F2DF100149C8800020A2E72A00002049
:1051C00000B597B001214FF4F070FBF795FD032077
:1051D0008DF85A0018208DF85B004FF63370ADF84B
:1051E000580016A9C448FBF7CBFA4FF68370ADF808
:1051F000580016A9C148FBF7C3FA4FF23F00ADF8BB
:10520000580016A9BE48FBF7BBFA40F23F40ADF884
:10521000580016A9BB48FBF7B3FA00200090019094
:105220000320029000200590039004900690042033
:1052300007900020099010200A9000200B900D90FC
:105240000C900E900F90119013904FF4805010908E
:10525000002012900890CDF850D0CDF854D0012104
:105260000802FBF73CFD07A8FCF7F6FA0121042031
:10527000FCF75AFC17B000BD10B505E030F8024B42
:105280004FF0D0435C52891C131EA2F10102F5D1EC
:1052900010BD10B505E04FF0D0435B5A20F8023B3B
:1052A000891C131EA2F10102F5D110BD3CB54FF2CD
:1052B000F000019000254FF480641AE0012221469D
:1052C00001A8FFF7D9FF012221466846FFF7E1FF59
:1052D000BDF80000BDF80410884209D1681C85B2F1
:1052E00004F5806400200090B4F5801F01D901E02E
:1052F00000E0E3E700BF28463CBD10B588B00020C1
:105300000690079080A30FCB02AC0FC40020FEF7DD
:10531000D4FD0A20FDF7D5FDFFF752FFE8E07E48F7
:1053200080885F287BDD7C488088962877DA7A48F9
:10533000C088B0F5967F72DD7748C088B0F5B17F40
:105340006DDC00204FF4784374A2014600900A20DF
:10535000FEF7E4FE00204FF4784374A2122100907F
:105360000A20FEF7DBFE00204FF4784373A22421CD
:1053700000900A20FEF7D2FE00204FF4784374A27A
:10538000402100900A20FEF7C9FE00204FF6E0738E
:1053900074A24FF4E17100904FF48C70FEF7BEFEE2
:1053A000FFF784FF044642F2107094FBF0F100FB1B
:1053B00011404FF47A7190FBF1F03030C0B28DF8AB
:1053C0001800084694FBF0F100FB1140642190FBAB
:1053D000F1F03030C0B28DF81900642094FBF0F188
:1053E00000FB11400A2190FBF1F03030C0B28DF883
:1053F0001A000A2094FBF0F100FB11403030C0B2DB
:105400008DF81B0000204FF4784306AA402100903D
:105410005320FEF783FE00203F498880C880FFF7B5
:1054200068FE01215148FBF73EFA01281ED10A20EF
:10543000FDF747FD01214D48FBF735FA01280DD155
:105440000F22022102A8FFF717FF00204FF4784334
:1054500047A2562100900A20FEF760FE00BF0121FE
:105460004248FBF720FA0028F9D12AE00821234816
:10547000FBF719FA28BB0A20FDF723FD08211F4876
:10548000FBF711FAB0B900204FF478433BA26A2130
:1054900000900A20FEF742FE0F22022102A8FFF729
:1054A000F8FE00204FF4784302AA7E2100900A20E3
:1054B000FEF734FE00BF08211048FBF7F4F900287E
:1054C000F9D015488088B0F58C7F11DD12488088AE
:1054D000B0F5A07F0CDA1048C088B0F5E17F07DD99
:1054E0000D48C088B0F5F07F02DAFEF70DFE00E04F
:1054F00015E700BF08B010BD0014014000180140BE
:10550000001C0140002001407777772E70726563A0
:1055100068696E2E636F6D002A0000205352414D62
:1055200020B2E2CAD42E2E2E00000000B0B4BCFC83
:105530004B5F757020D0B4CAFDBEDD00B0B4BCFCBA
:105540004B5F646F776E20B6C1CAFDBEDD00000000
:105550005352414D204361703A20202020204B427D
:1055600000000000B7B5BBD80000000000080140F3
:105570005772697465204F4B2100000052656164C9
:10558000204F4B210000000008B501214FF484702A
:10559000FBF7B2FB4FF4C040ADF8000010208DF8CF
:1055A000030003208DF802006946F848FBF7E8F88D
:1055B0004FF48041F548FBF790F94FF40051F34860
:1055C000FBF78BF9FFF77BF808BD2DE9F0410646A4
:1055D0000C4617464FF0000800254FF48041EB4879
:1055E000FBF77BF9FF20FFF741F84FF48041E748D4
:1055F000FBF775F94FF40051E448FBF76EF94FF4EF
:105600008051E348FBF769F906E0681C85B2642D18
:1056100002DDFF20BDE8F081FF20FFF727F8FF281B
:10562000F3D146F04000FFF721F8200EFFF71EF8F7
:10563000C4F30740FFF71AF8C4F30720FFF716F882
:10564000E0B2FFF713F83846FFF710F80C2E02D13E
:10565000FF20FFF70BF8002500BFFF20FFF706F83B
:105660008046681C85B2642D01DDFF20D2E708F07A
:1056700080000028F1D14046CCE738B50024FFF780
:1056800083FF6420FDF71DFC00BF04E0FF20FEF750
:10569000EDFF601C84B20F2CF8DB002406E0601CD8
:1056A00084B2642C02DD4FF0FF3038BD952200211A
:1056B0000846FFF78AFF0128F1D1002400BF601CD3
:1056C00084B2642C00DD08E087224FF4D5710820F5
:1056D000FFF77BFF0546012DF1D100BF012D55D10C
:1056E000002406E0FF20FEF7C1FF0DF80400601C57
:1056F00084B2042CF6DB9DF80200012803D19DF84A
:105700000300AA2802D04FF0FF30CEE7002400BFEC
:10571000601C84B2642C02DD4FF0FF30C5E701222B
:1057200000213720FFF751FF012291072920FFF7C1
:105730004CFF0546002DEBD1002407E0601C84B22D
:10574000642C03DD00209349087006E0012200214B
:105750003A20FFF73AFF0028F0D100BF002406E00E
:10576000FF20FEF783FF0DF80400601C84B2042CB8
:10577000F6DB9DF8000000F0400018B106208549D6
:1057800008703BE004208349087037E001220021C3
:105790003720FFF71AFF012200212920FFF715FF0C
:1057A0000546012D17DC02207A490870002400BF4D
:1057B000642C02DD4FF0FF3077E701220021372013
:1057C000FFF703FF012200212920FFF7FEFE054617
:1057D000002DEDD112E001206E490870002406E092
:1057E000601C84B2642C02DD4FF0FF305DE70122C3
:1057F00000211046FFF7E9FE0028F1D14FF4804167
:105800006248FBF76AF8FF20FEF730FF0020FEF742
:10581000AAFF002049E77FB50446002500BF01220A
:1058200000210920FFF7D1FE0028F8D1681C85B2BD
:10583000642D03DD4FF0FF3004B070BD002507E09C
:10584000681C85B2B5F5FA7F02DD4FF0FF30F3E753
:10585000FF20FEF70BFFFE28F2D1002506E0FF2017
:10586000FEF704FF0DF80500681C85B2102DF6DB6D
:10587000FF20FEF7FBFEFF20FEF7F8FE4FF480410D
:105880004248FBF72AF8FF20FEF7F0FE9DF80000E3
:1058900000F0C00040280BD19DF809009DF80810C9
:1058A00000EB0120401C206020688002206022E084
:1058B0009DF8050000F00A009DF80A1000EBD110D9
:1058C0009DF8091001F0030100EB4100861C9DF8D2
:1058D000080080119DF8071000EB81009DF806106C
:1058E00001F0030100EB8120401C2060A6F10901BA
:1058F00020688840206000209EE770B5054600249F
:1059000007E0601C84B2B4F5805F02DB4FF0FF302B
:1059100070BDFF20FEF7AAFEFE28F2D1002406E0AB
:10592000FF20FEF7A3FE28706D1C601C84B2B4F546
:10593000007FF5DBFF20FEF799FEFF20FEF796FEC5
:105940000020E5E72DE9F04106460F4615461148CF
:105950000078062800D07F02012D1DD1002400BF51
:10596000012239461120FFF730FE0028F8D1601CD3
:1059700084B2642C03DD4FF0FF30BDE8F081304687
:10598000FFF7BBFF60B34FF0FF30F6E700200140A8
:10599000000C014032000020002400BF01223946E3
:1059A0001220FFF712FE0028F8D1601C84B2642C8C
:1059B00002DD4FF0FF30E0E708E03046FFF79DFFE3
:1059C00010B14FF0FF30D8E706F50076281EA5F19C
:1059D0000101CDB2F1D1012200210C20FFF7F5FD2C
:1059E0004FF48041CA48FAF778FFFF20FEF73EFEE9
:1059F0000020C2E770B505460E46002405E0B4F568
:105A0000805F02DB4FF0FF3070BDFF20FEF72EFEFF
:105A1000FF28F4D13046FEF729FE002405E028785F
:105A2000FEF724FE6D1C601C84B2B4F5007FF6DB2B
:105A3000FF20FEF71BFEFF20FEF718FEFF20FEF7FB
:105A400015FE044604F01F0005280AD04FF48041DB
:105A5000AF48FAF742FFFF20FEF708FE4FF0FF3095
:105A6000D2E70020D0E72DE9F04106460F46154663
:105A7000A8480078062800D07F02012D19D1002403
:105A800000BF012239461820FFF79FFD0028F8D1FA
:105A9000601CC4B2642C03DD4FF0FF30BDE8F08120
:105AA000FE213046FFF7A6FF002840D04FF0FF3020
:105AB000F4E798480078012809D101220021372015
:105AC000FFF783FD012229461720FFF77EFD002402
:105AD00000BF012239461920FFF777FD0028F8D1D1
